:020000040800F2
:10000000280F002029940008A9900008AB90000850
:10001000AD900008AF900008B1900008000000000B
:10002000000000000000000000000000D18E000869
:10003000B390000800000000798E00089D8700083A
:10004000BD940008C1940008C5940008C994000834
:10005000CD940008D1940008D5940008D9940008E4
:10006000DD940008E1940008E5940008E994000894
:10007000ED940008F1940008B5900008F59400088C
:10008000F9940008FD940008019500080595000802
:10009000099500080D9500081195000815950008B0
:1000A000199500081D950008219500082595000860
:1000B000299500082D950008319500083595000810
:1000C000399500083D9500084195000845950008C0
:1000D00049950008BF900008C9900008D390000817
:1000E0004D95000851950008559500085995000850
:1000F000DD9000085D950008619500086595000891
:10010000699500086D9500087195000875950008BF
:10011000799500087D95000881950008859500086F
:10012000899500088D95000891950008959500081F
:10013000E7900008999500089D950008A195000892
:10014000A5950008A9950008AD95000800000000DD
:10015000B1950008B5950008B9950008BD9500084F
:10016000C1950008C5950008C9950008CD950008FF
:10017000D1950008D595000800000000000000009F
:10018000D9950008DD9500082DE9F14FB0B09246F1
:1001900004910DF142013A9A2B9199464A70002040
:1001A0000AE01AF8011B0498309A9047002804903E
:1001B00000F0B4860D98401C0D909AF8000050B1E4
:1001C0002528EED1002100220791089209910A9278
:1001D0000B910C9204E00D9800F0A2BE41F00101D9
:1001E0001AF8010F2028F9D023280CD02B2804D08E
:1001F0002D2805D0302809D00BE041F00201EFE7AF
:1002000041F00401ECE741F00801E9E741F0100199
:10021000E6E72A280FD1D9F8002052F8040BC9F8D4
:10022000002000280F9003D540420F9041F00401B8
:100230000AF1010A14E00F92DFF824380AE00F985F
:10024000984205DA00EB800402EB4402303A0F9248
:100250000AF1010A9AF80020A2F130000A28EED330
:100260009AF800002E2803D04FF0FF320E9229E0BA
:100270001AF8010F2A2809D1D9F8000050F8042BE8
:10028000C9F800000E920AF1010A1BE02D280CBFEC
:100290000AF1010A002000220E92DFF8C4470BE0A9
:1002A00040B90E9AA24205DA02EB820503EB450340
:1002B000303B0E930AF1010A9AF80030A3F13002A4
:1002C0000A2AEDD3ADF84010DFF89807784400F221
:1002D00094709AF8001000F055FF08B11AF8010B5D
:1002E0008DF842009DF84200682805D19AF8000078
:1002F00068280CD1622106E06C2804BF9AF800003F
:100300006C2804D171218DF842100AF1010A12A85B
:1003100006901AF801BBBBF125012CD01C3900F066
:10032000D081091F022940F2CC81133900F02185C8
:10033000093900F0C681891E00F0B685491E00F01B
:100340006385491E022940F2BC81091F00F05C85CB
:10035000491F00F02881491E00F00B85491E00F05E
:10036000D080C91E0DD0891E00F00385C91E00F083
:10037000008500F0A4BD25238DF84830012100F050
:10038000A9BDD9F8000050F8044BC9F80000002CB2
:10039000059440F0A3802B994878002800F09980BC
:1003A0004FF0FF340FF6803000F004FF201A40F0C9
:1003B000B58500F090BD6D1E40F0A7853096079D75
:1003C00012AF75B1309E17F8012B02A9304600F02C
:1003D00071FE002801D46D1EF5D10028309640F042
:1003E0009D850A9D3020002D8DF804000CDD309E87
:1003F000012301AA02A9304600F06CFE002840F05B
:100400008D856D1EF4D13096059F089D75B1309E87
:1004100017F8012B02A9304600F04CFE002801D449
:100420006D1EF5D10028309640F078850B9D302068
:10043000002D8DF804000CDD309E012301AA02A9D5
:10044000304600F047FE002840F068856D1EF4D16C
:10045000309605980899099D471875B1309E17F890
:10046000012B02A9304600F025FE002801D46D1EA4
:10047000F5D10028309640F051850C9D3020002D9C
:100480008DF804000CDD309E012301AA02A930463C
:1004900000F020FE002840F041856D1EF4D130961A
:1004A0009DF8400041077FF588AE2020002C8DF894
:1004B00004007FF782AE309D012301AA02A92846DD
:1004C00000F008FE002840F02985641EF4D1309524
:1004D00073E60FF66040059000F0FDBC0E9D002D08
:1004E00004D5204600F086FE044607E02A46204652
:1004F00000F09CFE002814BF041B2C46089400F05A
:10050000EABCD9F8001051F8040BC9F8001020F02B
:100510000004002121F0FF3512ABCDE9024505931F
:10052000DDE9022306993C2413B90AB90E9898B163
:1005300002F00F053035641EEEB23A2EA8BF273503
:10054000120942EA03721B090D5508BF002A03D0A5
:1005500005980D19A842EBD308190590C4F13C0287
:100560000E98089282420ADABDF84010821A4FF6BD
:10057000EF7001400A92ADF8401000F0ACBC0028CA
:1005800040F1A9849DF8400000F01400102840F0CC
:10059000A2840F9B07990A985B1A1B1A9A1A002AC1
:1005A00040F39984E3E32B99487820B14FF0FF346E
:1005B0000FF65030F8E69DF84200622861D06828B6
:1005C00017D06A283FD06C2806D0712847D07428ED
:1005D0002CD07A281DD064E0D9F8001051F8040B13
:1005E000C9F80010002868D14FF0FF340FF62C3006
:1005F000DAE6D9F8001051F8040BC9F8001020B958
:100600004FF0FF340FF61430CEE60D99018000F064
:1006100062BCD9F8001051F8040BC9F8001000288A
:100620004BD14FF0FF340FF6F420BDE6D9F800109F
:1006300051F8040BC9F8001000283ED14FF0FF34E8
:100640000FF6D820B0E6D9F8001051F8040BC9F81D
:10065000001080B94FF0FF340FF6C020A4E6D9F89F
:10066000001051F8040BC9F8001020B94FF0FF3406
:100670000FF6A82098E60D9AD317C0E9002300F0E2
:100680002ABCD9F8001051F8040BC9F8001020B9A1
:100690004FF0FF340FF6842086E60D99017000F0CC
:1006A0001ABCD9F8001051F8040BC9F8001020B991
:1006B0004FF0FF340FF6642076E60D99016000F0EC
:1006C0000ABCD9F80020D21D22F00702C9F8002088
:1006D000D2E900010832C9F80020CDE90201C80FB3
:1006E00002D007982D210AE0BDF84000810702D50D
:1006F00007982B2103E0C00705D50798202112AAEF
:100700001154401C079012A807994BF0200243187F
:10071000DDE90201CDE92C01612A059321AC0BD062
:100720000E98002802D506200E9005E001BF4BF080
:100730002000672801210E91DDE9020148004015E3
:10074000401C0A460DD109030BD0ABF16105032013
:100750001A2D089002D20FF6E0110DE00FF6DC1111
:100760000AE070B912030CD1ABF1610503201A2D18
:1007700008901AD30FF6CC110322184600F082FD20
:10078000A9E3DDE90201CDE92E01DDE92E2323F005
:100790000047B7F5801F22F000060DD20022002F7F
:1007A00008BF002E009203D116E00FF69411E3E784
:1007B0006A4600F0BBFD0FE0DFF8D808DFF8D81874
:1007C00000EB17500090DDE92E234FF0FF30194069
:1007D000DFF8C87810403943CDE902014BF0200022
:1007E00061280DD1059830210170821CBBF1610F89
:1007F00005920CBF7821582141700798801C079002
:10080000DDE9020120F0000231F0004308BF002AB8
:1008100002D10026002567E14BF02008B8F1610FF6
:1008200040F0B4800E98002847BF21210191401C60
:100830000190019FDDE92C017F1C00220023DDE9EE
:10084000024500F0ABFD00998DF8842038BF85F09B
:100850000045091F002F00910DF1850653DD20464C
:1008600029460022002300F0B1FD4CD24800400D83
:1008700000F11C0312D0002B10DD40F2FF70834208
:1008800006DBDFF81C1805F000421143002011E0E0
:100890006FF31E5141EA035120460BE024F00000A3
:1008A00035F0004108BF00280FBF29461C22294609
:1008B00000F0A4FD04460D4600F03EFEFF1F002F91
:1008C000804609DD00F056FE02460B4620462946CA
:1008D00000F062FE04460D46F01D0721B8F1000F3E
:1008E0000CDD491E5EBF08F00F0200F8012D4FEA33
:1008F0002818F3D502E0002200F8012D491EFAD590
:10090000C61D002FABDC0DF18500361A019886421A
:10091000D8BF304600280DF1850430D4B04206DA45
:100920000DF185010A5C082AA8BF0F2100DA002119
:10093000024621AB134400E0401E13F80159521E39
:100940008D42F9D00F2904D10DF185018B5C5B1C20
:100950008B54002A04D50099091D21AC401C00913C
:10096000411E0CD46218ABF13A0613783033DDB275
:100970003A2DA8BFF318491E02F80139F5D50E9992
:10098000002940F1AF80421E0E92ABE00099DFF8E3
:10099000142747F29750414391FBF2F2DDE92C45D1
:1009A000009225F00045D2F1070204DD20462946D9
:1009B00000F04DFB0BE052420020DFF8EC1600F097
:1009C00046FB02460B462046294600F057FE0446E9
:1009D000B8F1660F0E9806BF009F0A3706273F182A
:1009E000142FC8BF142730200D468DF884000DF158
:1009F0008506002F38DD2046294600F063FF0146BA
:100A00000A4606F1080304200A26B2FBF6F606EBB6
:100A1000860EA2EB4E02303203F8012C0A22B6FBFE
:100A2000F2F202EB820EA6EB4E063036401E03F8C1
:100A3000026DE9D1083F002F03F10806D9DD084611
:100A400000F054FF02460B462046294600F0A4FD64
:100A50000022DFF8583600F057FF04460D46CAE77B
:100A6000CBCCCC0C408A00000DF18500361A0DF17C
:100A7000850404E00098401E761E0090641C2078D7
:100A80003028F7D0B8F1660F02D10099491C04E074
:100A9000B8F1650F0CBF012100210E98081886429D
:100AA000B8BF701E00281DD4B04204DA215C34297E
:100AB000C8BF392100DC30210246631E9D1800E0CA
:100AC000401E15F80169521E8E42F9D0392902D113
:100AD000A15C491CA154002A04D50099491C1C465C
:100AE000401C00910646009D00F0E0FF406A077838
:100AF000DDF8388030B2002802DC01260FF24864AD
:100B00004BF02000662808BF6D1C16D0672846D120
:100B100028B210F1040F48DB404546DA9DF840004A
:100B20006D1C010703D430B24045B8BF804628B2DF
:100B3000B8EB000848BF4FF000080FFA85FBBBF187
:100B4000000F00F3B5800898411C089130220599E8
:100B50000A54B8F1000F03DC9DF84000010704D5EA
:100B60000898411C089105990F5418EB0B0FB8BF5A
:100B7000C8F100052DB268420B90A84432B29045EE
:100B8000B8BF4646059B089836B2099632462146BC
:100B9000184400F077FBA8EB06000C90D2E0BBF104
:100BA000610F17D14FF0700B19E030B2404504DAF5
:100BB0009DF840100A0758BF8046B8F1010848BFA9
:100BC0004FF00008BBF1670F14BF4FF0450B4FF01B
:100BD000650B04E0BBF1410F08BF4FF0500B0898C4
:100BE000411C0891B8F1000F059914F8012B0A5423
:100BF00003DC9DF8400001071AD50898411C0891B4
:100C0000B8F1000F05990F5412DD761E30B2804501
:100C10000598089BB8BF464632B22146184400F0FA
:100C200031FB089936B271180891A8EB06000B90B9
:100C300005980899084429B2002980F800B003D427
:100C40002B224270821C04E02D2242700D46821C31
:100C50006D4200212CAB28460AE004460A2094FB92
:100C6000F0F000EB8005A4EB450403F8014B491CB0
:100C700000B20028F1DC012906DC4BF020006528D9
:100C800004BF302002F8010B00292CAB08D1302022
:100C900002F8010B06E0491E585C303002F8010BE7
:100CA0000029F8DC059908980844121A099249E0CD
:100CB00030B229B288421CDA0598089B32B221462C
:100CC000184400F0DFFA089936B27118ABEB06064B
:100CD000B8F1000F08910B9603DC9DF84000020765
:100CE00004D5059847540999491C0991CDF83080DD
:100CF00028E00598089B2AB22146184400F0C2FA61
:100D00000898761B5844B8F1000F089003DC9DF852
:100D100040100A0703D5411C089105990F5430B2C1
:100D200080450598089BB8BF464632B204EB0B01DC
:100D3000184400F0A7FA089836B230180890A8EBCB
:100D400006000B909DF8400000F01400102840F0C1
:100D5000C280079A08990B988A18099982180C98EA
:100D60008A1882180F98824280F2B580821A0A92FD
:100D7000B1E09DF84200622808D068280ED06A28A9
:100D800014D06C281FD0712810D01CE0D9F80010A6
:100D900051F8040BC9F80010C0B21AE0D9F80010DD
:100DA00051F8040BC9F8001080B212E0D9F8002005
:100DB000D21D22F00702C9F80020D2E90001083252
:100DC000C9F8002006E0D9F8001051F8040BC9F862
:100DD00000100021CDE902019DF8400001075AD51D
:100DE000DDE90223002B08BF002A54D04BF020007D
:100DF000782850D1079812A930220A54401C431C6D
:100E0000079301F800B046E09DF84200622808D040
:100E100068280ED06A2814D06C281FD0712810D0F2
:100E20001CE0D9F8001051F8040BC9F8001040B2CA
:100E30001AE0D9F8001051F8040BC9F8001000B2FC
:100E400012E0D9F80020D21D22F00702C9F80020D4
:100E5000D2E900010832C9F8002006E0D9F80010F4
:100E600051F8040BC9F80010C117CDE9020100299F
:100E700002D507982D210AE0BDF84000810702D570
:100E800007982B2103E0C00705D50798202112AA57
:100E90001154401C079012A807990144059102A81B
:100EA000594600F04FF816E001200790D9F80000ED
:100EB00050F8041BC9F800008DF848100BE02521FC
:100EC0000122BBF1000F8DF84810079203D08DF876
:100ED00049B0022107910F9A07980A990C9C121A9F
:100EE0000898521A0B99121A0998521A121A9DF858
:100EF0004000141B41073FF562AA2020002C8DF80A
:100F000004007FF75CAA309E2546012301AA02A9AE
:100F1000304600F0DFF800283FF44DAA4FF0FF30D4
:100F200031B0BDE8F08F00007072696E74665F7357
:100F30003A2062616420257320617267756D656E69
:100F4000740000002DE9FC4307466F293E6908BF85
:100F5000082405D041F02000782814BF0A2410246A
:100F60003C25D7E90023642918BF69299046994692
:100F700005D1002B03D5D8F1000869EB4909B9F177
:100F8000000F08BFB8F1000F0CD1386B50B9082C16
:100F900039D197F83800010735D530203B2586F840
:100FA0003B0030E08DF80010404649462246E317EA
:100FB00000F080FD3032D0B26D1E3A28019504DB7E
:100FC0009DF80000A0F151018A187255404649462B
:100FD0002246E31700F06EFD80465FEA010908BF74
:100FE000B8F1000F03D0F86871198842DCD3082CDF
:100FF00009D197F83800010705D5705D302802D077
:101000006D1E30207055C5F13C02BA617119F9604E
:10101000386B824208DA821A3A624FF6EF70398FE3
:1010200001403987BDE8F38300280ED597F83800D2
:1010300000F01400102808D17B6B7969386A5B1ABC
:101040001B1A9A1A002AC8BF3A62BDE8F3832DE939
:10105000D04306460F4614464FF00008DFF8509084
:1010600012E0E00707D542464B463046394600F0CD
:101070004BFC06460F464046494642464B4600F06A
:1010800043FC641080468946002CEAD1304639463C
:10109000BDE8D08302FCFFFFFFFF0F800000E03FB0
:1010A0000000F07FA08601000000F03F84D7974148
:1010B0000000244010B503460C461146A06898472E
:1010C000A06020B1E06A401CE062002010BD4FF03B
:1010D000FF3010BDF8B505460E4617461C460020E9
:1010E0005CB117F8011BB068A847B06030B1F06A76
:1010F000401CF0620020641EF3D1F2BD4FF0FF30BF
:10110000F2BD00007072696E74665F733A20256EDE
:1011100020646973616C6C6F776564007072696ECE
:1011200074663A2062616420256E20617267756D75
:10113000656E7400000000006E616E004E414E004E
:10114000696E6600494E4600300030B4002513E059
:1011500050F8042BD30744BFA9F101039A18091FC3
:10116000042942F8045BFAD213468C0744BF158069
:101170009B1CC90748BF1D7050F8041B0029E7D10C
:1011800030BC7047C9B202788A421AB11CBF10F84D
:10119000012FF9E718BF002070478268521C826057
:1011A000426832B10268531C036011704168491EE5
:1011B0004160704780B500B906A005490B681BB1B6
:1011C00022220021984701E000F08CFD222002BD80
:1011D000200B0020636F6E73747261696E742068F7
:1011E000616E646C65723A20626164206D65737330
:1011F0006167650000F10103810704D010F8011B4D
:10120000820781B1FAD10268A2F10131914311F054
:10121000803104BF50F8042FF6E709BAB1FA81F122
:1012200000EBD100401CC01A70472E00C9B28307E2
:1012300006D0521E22D310F8013B9942F7D11FE08D
:10124000083A13D302F1040241EA012141EA0141C3
:1012500050F8043B121F21BF4B40A3F1013C2CEA84
:10126000030C1CF0803FF3D0C9B2001F083210F805
:10127000013B521E28BF91EA030FF8D818BF012086
:10128000401E704762B38B0708D0521E11F8013B15
:1012900000F8013B00F024808B07F6D1830740F073
:1012A000208000BF103A07D330B4B1E83810103AAC
:1012B000A0E83810F9D230BC530724BFB1E80810B9
:1012C000A0E8081044BF51F8043B40F8043BD207A3
:1012D00024BF31F8022B20F8022B44BF0B78037097
:1012E0007047121F17D35B0009D151F8043B20F857
:1012F000023B1B0C121F20F8023BF6D20BE051F808
:10130000043B00F8013B1B0A20F8023B1B0C121F98
:1013100000F8013BF3D238BF121D521E24BF11F852
:10132000013B00F8013BF8D87047000010B51446A7
:1013300000F002F8226010BDC1F30A5343B14A0025
:1013400012F5001F28D2A3F2FE32A1EB0251704722
:1013500050EA410C20D001F0004C31EA0C01B1FA06
:1013600081F204BFB0FA80F3D2180B3AB2F1200335
:101370002CBF00FA03F1914041EA0C013EBFC2F1DB
:10138000200C20FA0CF319439040524240F2FD33F6
:10139000D21A01EB03517047002270474FF4001C32
:1013A0001CEB410F94BF1CEB430F09E041EA030C17
:1013B00050EA4C0C52EA0C0C03D2994208BF9042FE
:1013C000704714BF8B428242704700004FF4001CEC
:1013D0001CEB410F94BF1CEB430F09E041EA030CE7
:1013E00050EA4C0C52EA0C0C03D28B4208BF8242EA
:1013F000704714BF9942904270470000124254D483
:1014000040F2FF7C1CEA11530FD0634531D09B188A
:1014100063453CBF01EB0251704701F0004141EAD6
:101420000C510020AFF30080704750EA410320D0F8
:1014300001F0004C91EA0C011CD0B1FA81F30B3B96
:101440009A420DD9D21A994051EA0C01C3F1200CED
:1014500020FA0CFC61449840531C40F2FF7CD7E713
:10146000914041EA0C01C2F1200C20FA0CF319431F
:1014700090407047B0FA80F31533202BE0D3202A38
:10148000EED3203A203B9A4209D9D21A00FA03F14E
:1014900041EA0C010020531C40F2FF7CB8E700FA3F
:1014A00002F141EA0C0100207047524240F2FF7CF9
:1014B0001CEA11530DD06345DBD0B2EB030C3CBFEB
:1014C000A1EB025170470CF1010221EA035141F4F2
:1014D000801150EA410CCCD001F0004C352A27DCB9
:1014E00030B481EA0C01B2F1200309DAC2F1200321
:1014F000044601FA03F5D0402843D1409C400CE05B
:10150000C3F12002450020FA03F418BF44F001049F
:1015100021FA03F091400C43002174F1004550F191
:10152000000051EB0C01244230BC7FF47BAF7047CC
:101530006146002076E70000C1F30A5340F2FE3214
:101540009B1A14DDD3F120034FEAE17208DDC902D2
:1015500041EA505141F00040D84080185040704757
:1015600003F2E13010B1D24382F000407047002016
:1015700070470000C11768B14840401AB0FA80F2C5
:101580009040D21CC907C2F5846241EA025202EBC4
:10159000D02140057047000070B44FF0004591EA3B
:1015A000030F40F1A3836B40841A71EB030603D24F
:1015B000001BB141121973414FF4001C1CEB410F89
:1015C00034BF7CEB430442E00C0DA4EB1356352EE4
:1015D0004FDC45EAC323DB0A45EAC121C912B6F153
:1015E00020050DDD63FA05F6EB4086EA030512429D
:1015F00018BF45F00105C01851F100010CD213E0ED
:1016000062FA06F5F2405540F3415A40B340F340C8
:101610005A408018594107D349085FEA30005FEA11
:10162000350528BF45F0010501F58011420875F127
:10163000004250F1000041EB04514E0016F5001F2E
:1016400070BC38BF70470020090D090570471CEBBE
:10165000410F10D252EA43060BD0BCEB410F05D824
:101660000C0DAB43661E342EB6DD02E0AB43801892
:10167000594170BC704770BC70470000F0B540F233
:10168000FF7581EA030C0CF0004C15EA11541DBFE4
:1016900015EA1357AC42AF42E5E0BC41C1F3130178
:1016A000C3F31303801A994143F4801304D2641ED8
:1016B0004000494180185941C90241EA5051B1FBEB
:1016C000F3F603FB1611A2FB0675D7EBC020A94168
:1016D00002D2761E80185941C90241EA5051B1FB2D
:1016E000F3FE03FB1E11A2FB0E75D7EBC020A94130
:1016F00003D2AEF1010E80185941890241EA90519E
:10170000760546EA8E2EB1FBF3F603FB1611A2FB1B
:101710000675D7EB8020A94102D2761E8018594168
:10172000C90241EA50514EEA060EB1FBF3F603FB43
:101730001611A2FB0675D7EBC020A94102D2761E76
:1017400080185941C90241EA5051B1FBF3F703FB3C
:101750001711A2FB0735D3EBC020A94167F10007A1
:101760000CBF004247F0010766F3D5274FEA1E3150
:10177000B80814F5806412DDBD0775F1004250EB26
:101780000E5051EB045111F5801F5CBF41EA0C0172
:10179000F0BD4CF07F6141F0E0410020F0BDBD079D
:1017A0006D0840EA0E5041F48011D4F10104B4F107
:1017B00020060ADAC4F120060200E04001FA06F32E
:1017C000E1401843B24015430EE0342C13DCC6F15F
:1017D000200445EA40056D0820FA06F2154321FA77
:1017E00006F0A1400D43002175F1004250F10000C8
:1017F00051EB0C01F0BD00205FEA0C01F0BDCFB948
:1018000092185B41B3FA83F704BFB2FA82F6BF19AC
:101810000B3FB7F120062FBF02FA06F3BB40C7F11A
:10182000200622FA06F638BF3343BA401CB1E41949
:10183000641E33E77F4231F00041B1FA81F404BF06
:10184000B0FA80F6A4190B3CB4F120062FBF00FAC1
:1018500006F1A140C4F1200620FA06F638BF314354
:10186000A0403C1B1AE7AC421ABF05EA1357AF422F
:1018700012E050EA41061CBF52EA4306BFE750EAB5
:101880004107304661461CBF41EA0551F0BD52EAAE
:10189000430C08BFC143F0BD00204FF4001616EB07
:1018A000410F98BF16EB430F08BF16EB410F24BF43
:1018B000C14305E016EB430F0CBF61464CEA0551EE
:1018C000F0BD0000400D491840EA81200CD2490DBE
:1018D000A1F58061491C40F0004005DBD1F11F01FA
:1018E00054BFC840C017704700207047014648B138
:1018F000B0FA80F18840C91CC1F58461090501EB8B
:10190000D021400570470000B0B581EA030C0CF00F
:10191000004C40F2FF7515EA11541DBF15EA13572C
:10192000AC42AF4239E0E41923EA455343F4801353
:10193000C90241F0004141EA505EC7021100A7FB15
:10194000020200284FF00000EEFB01204FF00001E2
:10195000E3FB072118BF42F0010240180021494172
:10196000E3FB0E01A4F580640F0302D25200404154
:10197000494154F101046CDD470872F1004250F115
:10198000000051EB0451A1F580115CBF41EA0C014C
:10199000B0BD4CEA05510020B0BD05EA1357AC427A
:1019A00014BFAF4241E050EA410E1CBF52EA430E61
:1019B00002E061460020B0BD24423C441BD15FEAF6
:1019C000070EF6D0090302BF01460020AEF1140E47
:1019D000B1FA81F7AEEB070401FA07FE0C37C7F145
:1019E000200100FA07F7C8404EEA000E23EA4553EB
:1019F00043F48013A2E733F00043B3FA83F704BF44
:101A0000B2FA82FE77440B3FE41BB7F1200E2FBFE2
:101A100002FA0EF3BB40C7F1200E22FA0EFE38BFC9
:101A200043EA0E03BA40641C82E750EA410E14BF39
:101A300052EA430E6FF000014FF4001717EB430F0B
:101A40008ABF194617EB410FB5E74CEA0551002054
:101A5000B0BDD4F10104B4F120070FDAC4F12007BE
:101A6000520828BF42F0010210FA07F501FA07F701
:101A7000E1BF2A43E0403843E1400FE0352C98DCD9
:101A8000C7F1200452EA400220FA07F218BF42F0E0
:101A9000010231FA07F0A1400A43002172F100422D
:101AA00050F1000051EB0C01B0BD00000048704740
:101AB00020000020BBBBE1B1B2F5803F80F07E800A
:101AC000022A1ED98C46B1FBF2F102FB11C31B04A2
:101AD00043EA1043B3FBF2FC02FB1C3380B240EA42
:101AE0000343B3FBF2F002FB103240EA0C40002348
:101AF0007047022A05D98446B0FBF2F002FB10C2FF
:101B000070474AB105D100F0010249085FEA300090
:101B1000704700220023704700F09EB90B000200BE
:101B2000002100207047904271EB030CF6D3B3F50F
:101B3000803F2FD2F0B5B3FA83F7B1FA81F4A7F161
:101B40000F0E3D1B5340CEF1200602FA0EF2F34178
:101B50005340B5F10F0746D80F3C2C444140C4F127
:101B60002006A040F1414140B1FBF3F603FB161102
:101B7000A2FB0645001BA94102D2761E80185941DE
:101B800080EA010221FA0EF362FA0EF200215A40B5
:101B90003046F0BD30B4B1FBF3FC03FB1C11A2FBDB
:101BA0000C45001BA94103D2ACF1010C801859412E
:101BB00030BC02460B46604600217047B2F1807F80
:101BC00065D3F0B5B2FA82F7B1FA81F4C7F10F0626
:101BD0003D1B22FA06F307F1110EF24120355A405F
:101BE000B5F10F07B8D94140C4F12006A040F1413A
:101BF0004140B1FBF3FC03FB1C11A2FB0C45001B95
:101C0000A94103D2BCF1010C801859410F2F12D306
:101C10000F3FC90341EA5041B1FBF3F603FB161134
:101C2000A2FB0645D4EBC030A94102D2761E801833
:101C3000594146EACC3C07B34140C7F12006B840C1
:101C4000F1414140B1FBF3F603FB1611A2FB06453F
:101C5000001BA94102D2761E8018594180EA010278
:101C600021FA0EF3C7F1200462FA0EF20CFA07F023
:101C70005A402CFA04F13043F0BD80EA010221FA07
:101C80000EF3002162FA0EF260465A40F0BD8C4617
:101C9000B1FBF2F102FB11C31B0243EA1063B3FB79
:101CA000F2FC02FB1C331B024CEA002043EA1063E7
:101CB000B3FBF2FC02FB1C331B024CEA002043EA9C
:101CC0001063B3FBF2FC02FB1C331B024CEA002046
:101CD00043EA1063B3FBF2FC02FB1C324CEA002027
:101CE00000237047012000F0B9B80000841A71EB9E
:101CF000030604D26E40001BB141121973414FF428
:101D0000001C1CEB410F34BF7CEB430683E00C0D41
:101D1000A4EB1356362E00F37C80012E45EAC32334
:101D200041DC43EA525312BFD20292025B082405FF
:101D300045EAC12141EA5051D2EBC020994125D456
:101D400007D1B0FA80F610FA06F162D000202036F2
:101D500008E0B1FA81F6B140C6F1200220FA02F2A1
:101D60001143B0404FEAF474B4EB465434F001062A
:101D70004FEA74040AD8D6F50016760D04F0004434
:101D8000F04061FA06F25040F1404840C00A40EA93
:101D9000415021F0004128BF5FEA500550F100009A
:101DA00044EBD12135E0DB0A45EAC121C90AB6F18D
:101DB00020050EDD42EA0242120CC5F1200603FAAC
:101DC00006F6EB4042EA06056D42984161F10001DA
:101DD0000DE062FA06F5F240554063FA06FC82EA2D
:101DE0000C02F3405A406D42904161EB030111F443
:101DF000801F05D1641E620502D06D00404149413B
:101E000021F48011430875F1004350F1000041EBCB
:101E1000045170BC70471CEB410F15D223F00043F6
:101E200052EA43060BD04FEA4C0CBCEB410F04D8EE
:101E30000C0D661E342EB7DDEBE7801A994150EA8F
:101E4000410608BF0021E4E708BF1CEB430F28BF91
:101E50006FF00001DDE700007047000080B5AFF3D0
:101E60000080024A11001820ABBEFBE726000200EA
:101E700010B50400002C01D1012035E0A069002834
:101E8000FFD1E06F002805D1002084F87800200001
:101E900001F011F92420E067206800684008400044
:101EA00021680860606A002802D0200000F00CFC65
:101EB000200000F051FA012801D1012014E020682F
:101EC000406830F49040216848602068806830F0B5
:101ED0002A00216888602068006850F001002168AD
:101EE0000860200000F05DFC10BD70B505000C001E
:101EF0001600D5F88000202824D1002C03D0300013
:101F000080B2002801D101201DE000202866286849
:101F1000DFF8341488420ED02868406800020AD5E1
:101F2000286850E8000F50F0806001002A6842E8FD
:101F300000100028F4D1320092B22100280000F0F5
:101F4000E8FC00E0022070BD70B505000C00160032
:101F5000E86F202848D1002C03D0300080B2002840
:101F600001D1012041E0EC64A5F85060A5F8526071
:101F70000020C5F884002120E867286F002820D0C1
:101F8000DFF8C803296FC862DFF8C403296F08634C
:101F9000DFF8C003296F48630020296F886333008E
:101FA0009BB2286810F12802E96C286F01F000FA52
:101FB000002806D01020C5F884002020E867012002
:101FC00013E04020296808622868083050E8000FB4
:101FD00050F080000100286810F1080242E800106B
:101FE0000028F1D1002000E0022070BD2DE9F0476B
:101FF00006003068C7693068D0F800803068D0F8D3
:10200000089040F60F043C40002C0BD1B80609D5CF
:102010005FEA886006D5B06E002802D03000B16E4D
:1020200088478FE1002C00F0AA805FEAC97005D4D0
:10203000DFF88C0618EA000F00F0A18017F001000D
:10204000C0B200280BD05FEAC85008D50120316823
:102050000862D6F8840050F00100C6F88400B80782
:102060000DD519F00100C0B2002808D00220316857
:102070000862D6F8840050F00400C6F8840078079F
:102080000DD519F00100C0B2002808D00420316835
:102090000862D6F8840050F00200C6F884003807C1
:1020A00010D55FEA886004D419F00100C0B200289E
:1020B00008D0082031680862D6F8840050F0080083
:1020C000C6F8840038050CD55FEA481009D54FF4EE
:1020D000006031680862D6F8840050F02000C6F82D
:1020E0008400D6F88400002848D0B80608D55FEAF6
:1020F000886005D5B06E002802D03000B16E8847E8
:10210000D6F88400050030688068400602D415F0D7
:10211000280F2DD0300000F082FC30688068400627
:1021200022D53068083050E8000F30F04000010040
:10213000306810F1080242E800100028F1D1706FF9
:1021400000280DD0DFF87C05716F8863706F01F097
:10215000A5F9002812D0706F716F896B88470DE068
:10216000300001F05CFA09E0300001F058FA05E0B7
:10217000300001F054FA0020C6F88400E2E0306E2E
:10218000012840F0BD80F80640F1BA805FEAC860DF
:1021900040F1B680102031680862306880684006DF
:1021A0006DD5706F0068D0F804A0504680B200284A
:1021B00052D05046B6F8581080B288424CD2A6F899
:1021C0005AA0706F00680068800639D4306850E803
:1021D000000F30F480700100326842E800100028DF
:1021E000F4D13068083050E8000F4008400001008A
:1021F000306810F1080242E800100028F1D1306880
:10220000083050E8000F30F040000100306810F155
:10221000080242E800100028F1D12020C6F8800012
:1022200000203066306850E8000F30F010000100E8
:10223000326842E800100028F4D1706F01F004F910
:1022400002207066B6F85810B6F85A00091A89B21A
:10225000300001F0E5F911E05046B6F8581080B2B0
:1022600088420BD1706F00680068800606D5022096
:102270007066B6F85810300001F0D2F962E0B6F896
:102280005800B6F85AA0B0EB0A0AB6F85A0000286F
:1022900035D0504680B2002831D0306850E8000F69
:1022A00030F490700100326842E800100028F4D148
:1022B0003068083050E8000F4008400001003068E6
:1022C00010F1080242E800100028F1D12020C6F8E1
:1022D0008000002030660020B066306850E8000FB3
:1022E00030F010000100326842E800100028F4D1FC
:1022F00002207066514689B2300001F091F921E068
:10230000F8020AD55FEA492007D55FF480103168EA
:102310000862300001F085F914E0380609D55FEA5B
:10232000086006D5F06E002802D03000F16E8847B4
:1023300008E0780606D55FEA486003D5300000F073
:1023400002FCFFE7BDE8F087008000407D2A00081E
:10235000CD2A0008DD2A00082DE9F04704000026F8
:10236000DFF8F81820688842FFD0A268206902438D
:1023700060690243E069024320680368DFF8E0080F
:1023800003401343206803602068436833F44053DC
:10239000E068034320684360D4F8188020688842CE
:1023A00002D0206A50EA08082068806830F4306063
:1023B00058EA0000226890602068DFF8A828904260
:1023C00016D1DFF8A408006810F00300002805D03B
:1023D000022805D006D3032806D007E001279DE098
:1023E00002279BE0042799E0082797E0102795E053
:1023F0002068DFF87828904217D1DFF86C08006871
:1024000010F00C00002806D0042808D0082804D0BA
:102410000C2806D007E0002780E002277EE0042792
:102420007CE008277AE0102778E02068DFF8302980
:10243000904217D1DFF83008006810F03000002813
:1024400006D0102808D0202804D0302806D007E075
:10245000002763E0022761E004275FE008275DE0D2
:1024600010275BE02068DFF8FC28904217D1DFF8E6
:10247000F807006810F0C000002806D0402808D0F7
:10248000802804D0C02806D007E0002746E00227B5
:1024900044E0042742E0082740E010273EE020689F
:1024A000DFF8C42890421AD1DFF8BC07006810F4A6
:1024B0004070002809D0B0F5807F0AD0B0F5007FC9
:1024C00005D0B0F5407F06D007E0002726E00227C0
:1024D00024E0042722E0082720E010271EE02068DF
:1024E00088421AD1DFF88007006810F440600028A5
:1024F00009D0B0F5806F0AD0B0F5006F05D0B0F507
:10250000406F06D007E0002708E0022706E0042716
:1025100004E0082702E0102700E010272068884226
:1025200046D13800C0B2002806D0022808D00428BE
:1025300009D008280BD00DE001F0BAFC81460DE06F
:10254000DFF828980AE001F046FC814606E04FF4E7
:10255000004903E05FF0000901200600B9F1000F17
:1025600000F0A580616803204143894505D3616877
:102570004FF480504143494502D20120060096E0C5
:102580004FF48072606840080021E2FB0901626834
:102590000023FFF78FFA0500B5F5407F05D3B5F5A9
:1025A000801F02D22068C56081E0012006007EE025
:1025B000E069B0F5004F41D13800C0B2002808D022
:1025C00001280AD002280CD004280DD008280FD0EA
:1025D00011E001F06DFC814611E001F076FC8146CE
:1025E0000DE0DFF888970AE001F0F5FB814606E090
:1025F0004FF4004903E05FF0000901200600B9F143
:10260000000F54D06068400810EB49006168B0FBCF
:10261000F1F00500102D0ED3B5F5803F0BD24FF62B
:10262000F0712940C5F3420001438A46504680B20A
:102630002168C8603BE00120060038E03800C0B2E5
:10264000002808D001280AD002280CD004280DD078
:1026500008280FD011E001F02BFC814611E001F0B9
:1026600034FC81460DE0DFF804970AE001F0B3FB8B
:10267000814606E04FF4004903E05FF000090120C5
:102680000600B9F1000F12D0606819EB50006168C4
:10269000B0FBF1F00500102D07D3B5F5803F04D253
:1026A000280080B22168C86001E0012006000020F7
:1026B000A0660020E0663000C0B2BDE8F0870000F0
:1026C000200100042D2B000890F82410090707D5DD
:1026D00001684A6832F40042416B0A4301684A606B
:1026E00090F82410C90707D501684A6832F400320F
:1026F000816A0A4301684A6090F82410890707D567
:1027000001684A6832F48032C16A0A4301684A604B
:1027100090F82410490707D501684A6832F48022EE
:10272000016B0A4301684A6090F82410C90607D576
:1027300001688A6832F48052816B0A4301688A60BA
:1027400090F82410890607D501688A6832F400528F
:10275000C16B0A4301688A6090F82410490613D5BA
:1027600001684A6832F48012016C0A4301684A60C9
:10277000016CB1F5801F07D101684A6832F4C002CC
:10278000416C0A4301684A6090F82410090607D595
:1027900001684A6832F40022816C0A4301684A6089
:1027A000704738B504000020C4F8840001F087FCAD
:1027B00005002068006800071DD57FF07E4000906E
:1027C0002B0000225FF40011200000F053F80028D5
:1027D00011D0206850E8000F30F08000010022681E
:1027E00042E800100028F4D12020E067002084F89F
:1027F000780003203DE02068006840072CD57FF07A
:102800007E4000902B0000225FF48001200000F049
:1028100031F8002820D0206850E8000F30F4907084
:102820000100226842E800100028F4D12068083036
:1028300050E8000F400840000100206810F1080235
:1028400042E800100028F1D12020C4F880000020C8
:1028500084F8780003200CE02020E0672020C4F8F2
:1028600080000020206600206066002084F8780048
:10287000002032BD2DE9F04105000E0090461F00FA
:10288000069C2868C0693040B04201D1012000E0B8
:1028900000204146C9B2884238D114F1010FF0D06E
:1028A00001F00DFCC01B844201D3002C01D1032098
:1028B0002DE0286800684007E3D5802EE1D0402E47
:1028C000DFD02868C06900070DD508202968086294
:1028D000280000F0A4F80820C5F88400002085F83E
:1028E0007800012013E02868C0690005C9D54FF4BD
:1028F000006029680862280000F091F82020C5F8DF
:102900008400002085F87800032000E00020BDE866
:10291000F08130B403005965A3F85820A3F85A2079
:10292000002098669868B0F5805F0BD11869002880
:1029300004D140F2FF10A3F85C0023E0FF20A3F8CD
:102940005C001FE0986800280AD11869002803D1AC
:10295000FF20A3F85C0015E07F20A3F85C0011E0E5
:102960009868B0F1805F0AD11869002803D17F20F0
:10297000A3F85C0006E03F20A3F85C0002E0002022
:10298000A3F85C000020C3F884002220C3F8800074
:102990001868083050E8000F50F001000400186873
:1029A00010F1080545E800400028F1D19868B0F51D
:1029B000805F06D11869002803D10FF2B520986610
:1029C00002E00FF2AD109866186900280BD0186865
:1029D00050E8000F50F4907004001D6845E8004076
:1029E0000028F4D10AE0186850E8000F50F02000E9
:1029F00004001D6845E800400028F4D1002030BCE8
:102A00007047016851E8001F31F0C0010A000368F7
:102A100043E800210029F4D12021C16770470168F3
:102A200051E8001F31F490710A00036843E8002167
:102A30000029F4D10168083151E8001F4908490014
:102A40000A00016811F1080343E800210029F1D1CF
:102A5000016E01290AD1016851E8001F31F010010F
:102A60000A00036843E800210029F4D12021C0F8BE
:102A700080100021016600218166704738B504008E
:102A8000A56A2068006880061CD40020A5F85200C2
:102A90002868083050E8000F30F0800001002868F6
:102AA00010F1080242E800100028F1D1286850E82F
:102AB000000F50F0400001002A6842E80010002892
:102AC000F4D102E0280001F0B9FA31BD38B50400B4
:102AD000A56A280001F0BEFB31BD0000F8B5040076
:102AE000A56AEE6FD5F8807028688068000607D563
:102AF000212E05D10020A5F852002800FFF781FF04
:102B000028688068400607D5222F05D10020A5F847
:102B10005A002800FFF783FFD5F8840050F010001A
:102B2000C5F88400280000F07AFDF1BD38B5040036
:102B3000A56A0020A5F85A000020A5F85200280038
:102B400000F06DFD31BD10B50400206850E8000FA5
:102B500030F040000100226842E800100028F4D163
:102B60002020E0670020E066200001F067FA10BD39
:102B700070B50500B5F85C60D5F88000222866D1F4
:102B80002868808C040016EA0400696D0870686D7E
:102B9000401C6865B5F85A00401EA5F85A00B5F803
:102BA0005A00002859D1286850E8000F30F490707E
:102BB00001002A6842E800100028F4D12868083093
:102BC00050E8000F400840000100286810F108029A
:102BD00042E800100028F1D12020C5F88000002034
:102BE000A8660020686628681C4988420ED02868BC
:102BF000406800020AD5286850E8000F30F0806075
:102C000001002A6842E800100028F4D1286E01284B
:102C100019D100202866286850E8000F30F0100015
:102C200001002A6842E800100028F4D12868C06931
:102C3000C00602D5102029680862B5F8581028008F
:102C400000F0EEFC09E0280001F0D0F905E028686A
:102C5000008B50F008002968088370BD0080004098
:102C6000F369FFEF00380140881002400044004043
:102C7000F8B50500B5F85C70D5F88000222867D15A
:102C80002868808C0400686D060017EA0400308014
:102C9000686D801C6865B5F85A00401EA5F85A009A
:102CA000B5F85A00002859D1286850E8000F30F4D0
:102CB000907001002A6842E800100028F4D12868CA
:102CC000083050E8000F400840000100286810F16B
:102CD000080242E800100028F1D12020C5F8800049
:102CE0000020A866002068662868214988420ED026
:102CF0002868406800020AD5286850E8000F30F0C4
:102D0000806001002A6842E800100028F4D1286E93
:102D1000012819D100202866286850E8000F30F0FB
:102D2000100001002A6842E800100028F4D1286849
:102D3000C069C00602D5102029680862B5F858108D
:102D4000280000F06DFC09E0280001F04FF905E0D3
:102D50002868008B50F0080029680883F1BD000046
:102D600000480040004C0040005000400024F400A7
:102D70000080004080B5DFF8F404016851F00101E3
:102D80000160006810F0010000900098DFF8E00496
:102D9000016851F080510160006810F0805000908F
:102DA000009800220F217FF0010001F0B9FA01BD67
:102DB00030B5A7B004001422002101A801F0D6FA12
:102DC0008422002106A801F0D1FA2068DFF8A414BB
:102DD00088425BD14FF4804006905FF08050239092
:102DE00003200790012008900820099007200A90EE
:102DF00002200B9002200C905FF080700D9006A8CE
:102E000001F0BEFA002801D002F062F9DFF8680490
:102E1000016851F400510160016811F40051009102
:102E20000099016851F004010160006810F004008D
:102E300000900098012001900B2002900020039048
:102E400001A9DFF8380402F045F9DFF83454DFF85F
:102E500034042860002068600020A8600020E8603A
:102E6000802028614FF4807068614FF48060A86111
:102E70000020E8614FF400502862280000F01AFAA0
:102E8000002801D002F024F9E564AC6227B030BD1F
:102E900018B5A7B0040014220021684601F066FAB4
:102EA0008422002106A801F061FA2068DFF8D81317
:102EB000884231D14020069000201A9006A801F0E7
:102EC0005FFA002801D002F003F9DFF8AC030168D3
:102ED00051F002010160006810F0020005900598B1
:102EE0004FF4C07000901220019000200290032047
:102EF0000390042004906946DFF8900302F0EAF89A
:102F0000DFF86C03016851F400110160006810F4EF
:102F100000100590059835E02068DFF874138842AA
:102F200030D18020069000201B9006A801F028FADE
:102F3000002801D002F0CCF8DFF83C03016851F022
:102F400002010160006810F00200059005984FF43E
:102F50004060009012200190002002900320039016
:102F6000042004906946DFF8240302F0B3F8DFF888
:102F70000003016851F480010160006810F48000D2
:102F80000590059828B010BD10B586B00400142235
:102F9000002101A801F0EAF92068DFF8F812884260
:102FA00024D1DFF8C802016851F480510160006843
:102FB00010F4805000900098DFF8BC02016851F0D6
:102FC00001010160006810F0010000900098E0200D
:102FD000019002200290002003900320049005201D
:102FE000059001A95FF0904002F074F806B010BDA2
:102FF00081B00168A84A91420AD19D490A6852F0FD
:1030000002020A60096811F00201009100990DE0C6
:103010000168A24A914209D195490A6852F0040216
:103020000A60096811F004010091009901B070472D
:1030300010B586B0040014220021684601F096F90C
:1030400020689549884218D18B48016851F00401E5
:103050000160006810F0040005900598C020009001
:103060000220019000200290002003900220049092
:103070006946824802F02EF81BE0206887498842A2
:1030800017D17D48016851F002010160006810F01D
:103090000200059005984020009002200190002039
:1030A000029000200390022004906946774802F0C5
:1030B00011F806B010BD30B5A7B0040014220021ED
:1030C000684601F053F98422002106A801F04EF968
:1030D00020687349884253D1012006900020149043
:1030E00006A801F04DF9002801D001F0F1FF5F487A
:1030F000016851F480410160006810F4804005903F
:1031000005985D48016851F001010160006810F008
:103110000100059005984FF4C060009002200190D6
:1031200000200290022003900720049069465FF07F
:10313000904001F0CFFF5B4D5B4828600220686043
:103140001020A8600020E8608020286100206861CD
:103150000020A8610020E86100202862280000F01B
:10316000A9F8002801D001F0B3FF2567AC62002266
:103170000521252001F0D4F8252001F0E6F873E0C0
:1031800020684A49884236D10220069000201590D6
:1031900006A801F0F5F8002801D001F099FF3448A5
:1031A000016851F400310160006810F400300590AE
:1031B00005983148016851F001010160006810F084
:1031C0000100059005980C2000900220019000203D
:1031D0000290032003900720049069465FF090401E
:1031E00001F078FF00220521262001F099F8262021
:1031F00001F0ABF838E020682D49884234D1042032
:1032000006900020169006A801F0BAF8002801D018
:1032100001F05EFF1648016851F4802101600068EA
:1032200010F48020059005981348016851F00401BE
:103230000160006810F004000590059830200090AF
:1032400002200190002002900320039007200490A8
:1032500069460A4801F03EFF00220521272001F0BF
:103260005FF8272001F071F827B030BD60100240F0
:1032700058100240000204504C1002400008004860
:103280004009002058040240005400400004004857
:103290000058004000300140000400400008004099
:1032A00000380140880900204400024000440040EA
:1032B0000048004030B40100002901D1012067E03E
:1032C0000868344A90420AD20A68334882181420A7
:1032D000B2FBF0F0800048643048086409E00A68F6
:1032E0002F4882181420B2FBF0F0800048642D486B
:1032F0000864022081F82500086802686FF30E1246
:103300008B68C868034308690343486903438869B5
:103310000343C8690343086A03431A430868026009
:103320008868B0F5804F2AD0086C1C4B984213D1A6
:103330001D4803680F2491F8445015F01C05AC405B
:10334000A343036003684C6891F8445015F01C05D2
:10335000AC402343036012E0144803680F2491F843
:10336000445015F01C05AC40A343036003684C684F
:1033700091F8445015F01C05AC4023430360002035
:10338000C863012081F82500002081F82400002076
:1033900030BC704708040240F8FFFDBF0000024047
:1033A000F8FBFDBF00040240A8000240A804024050
:1033B0002DE9F04104000D0016001F005FF0000829
:1033C00094F82400012801D102203BE0012084F878
:1033D000240094F8250001282DD1022084F825002E
:1033E0000020E06320680068400840002168086011
:1033F0003B0032002900200000F0F8F8206B002884
:1034000006D02068006850F00E00216808600BE0CC
:103410002068006830F004002168086020680068B7
:1034200050F00A00216808602068006850F0010030
:103430002168086004E0002084F82400022080460F
:103440004046C0B2BDE8F0810100002291F825009D
:10345000022806D00420C863002081F8240001203F
:103460001BE00868006830F00E000B681860086800
:103470000068400840000B681860012091F8443053
:1034800013F01C0398400B6C5860012081F8250054
:10349000002081F824001000C0B2704738B5040045
:1034A000002594F82500022804D00420E0630120C0
:1034B00005001FE02068006830F00E0021680860F9
:1034C000206800684008400021680860012094F8E6
:1034D000441011F01C018840216C4860012084F8E0
:1034E0002500002084F82400A06B002802D02000D2
:1034F000A16B88472800C0B232BD70B50400206CB3
:10350000056820680668042094F8441011F01C0136
:1035100010FA01F10D4219D0710717D52168096819
:10352000890605D42168096831F004012268116018
:1035300094F8441011F01C018840216C4860206B05
:10354000002852D02000216B88474EE0022094F8DA
:10355000441011F01C0110FA01F10D421FD0B10707
:103560001DD521680968890608D42168096831F0E9
:103570000A0122681160012184F8251094F8441092
:1035800011F01C018840216C4860002084F8240060
:10359000E06A002829D02000E16A884725E0082059
:1035A00094F8441011F01C01884005421DD03007EA
:1035B0001BD52068006830F00E00216808600120EB
:1035C00094F8441011F01C018840216C48600120DF
:1035D000E063012084F82500002084F82400606B5B
:1035E000002802D02000616B884770BD30B40124F0
:1035F00090F8445015F01C05AC40056C6C600468F4
:1036000063608468102C04D10468A2600468E160DF
:1036100003E00468A1600468E26030BC7047704752
:10362000704770472DE9FE4F0500002D01D10120A4
:1036300011E3DFF8E898D9F8004014F00C04DFF843
:103640007489D8F8007017F003072878C00640F195
:10365000C680002C03D00C2C7AD1012F78D1DFF852
:10366000B8A8DAF80000800704D5A869002801D1BD
:103670000120F0E2DAF80000000704D5DAF80000D3
:1036800010F0F00005E0DFF830090068000910F0E4
:10369000F000296A88421ED2286A00F045FC002802
:1036A00001D00120D7E2DAF8000050F00800CAF893
:1036B0000000DAF8001031F0F001286A0143CAF87E
:1036C0000010DFF8F808016831F47F41EA6951EA37
:1036D000022101601FE0DAF8000050F00800CAF88B
:1036E0000000DAF8001031F0F001286A0143CAF84E
:1036F0000010DFF8C808016831F47F41EA6951EA37
:1037000002210160002C06D1286A00F00DFC00287F
:1037100001D001209FE200F05EFBDFF8A418D9F889
:103720000020C2F30312895C11F01F01C840DFF8CA
:10373000F0170860DFF8EC07006801F0EDFD8DF888
:1037400000009DF80000002849D09DF8000082E2AA
:10375000A86900282DD0DFF8C097D9F8000050F0F4
:103760000100C9F8000000F0AAFC0600D9F800002A
:10377000800706D400F0A3FC801B0328F6D30320A7
:1037800069E2D9F8000050F00800C9F80000D9F843
:10379000001031F0F001286A0143C9F80010DFF889
:1037A0001C08016831F47F41EA6951EA0221016095
:1037B00015E0DFF86497D9F8000040084000C9F828
:1037C000000000F07CFC0600D9F80000800706D558
:1037D00000F075FC801B0328F6D303203BE2287819
:1037E000C00754D5082C03D00C2C0BD1032F09D1C2
:1037F000DFF824070068800349D56868002846D1AF
:10380000012028E26868B0F5803F06D1DFF808079C
:10381000016851F48031016018E06868B0F5A02FAC
:103820000AD1DFF8F406016851F4802101600168D3
:1038300051F48031016009E0DFF8DC06016831F401
:1038400080310160016831F48021016068680028DE
:103850000ED000F034FC0600DFF8BC0600688003E0
:1038600015D400F02CFC801B6528F5D30320F2E171
:1038700000F025FC0600DFF8A0060068800306D5EE
:1038800000F01DFC801B6528F5D30320E3E12878B8
:10389000800752D5042C03D00C2C15D1022F13D144
:1038A000DFF874060068400504D5E868002801D1F7
:1038B0000120D0E1DFF80407016831F0F8512A69EE
:1038C00051EA0261016038E0E86800281FD0DFF8A3
:1038D0004896D9F8000050F48070C9F8000000F054
:1038E000EEFB0600D9F80000400506D400F0E7FB27
:1038F000801B0328F6D30320ADE1DFF8C006016882
:1039000031F0F8512A6951EA0261016015E0DFF8EF
:103910000896D9F8000030F48070C9F8000000F073
:10392000CEFB0600D9F80000400506D500F0C7FB25
:10393000801B0328F6D303208DE1287800072ED5BD
:103940006869002815D0DFF87096D9F8000050F0AB
:103950000100C9F8000000F0B2FB0600D9F8000031
:1039600080071CD400F0ABFB801B0328F6D3032098
:1039700071E1DFF84496D9F8000040084000C9F82A
:10398000000000F09CFB0600D9F80000800706D577
:1039900000F095FB801B0328F6D303205BE1287819
:1039A000400740F181805FF00009DFF818A6DAF8DF
:1039B0000000C0000DD4DAF8000050F08050CAF8C2
:1039C0000000DAF8000010F080500190019801200A
:1039D0008146DFF8F4B5DBF80000C00513D4DBF84E
:1039E000000050F48070CBF8000000F068FB060087
:1039F000DBF80000C00506D400F061FB801B032843
:103A0000F6D3032027E1A868012806D1DFF8BC051A
:103A1000016851F00101016017E0A86805280AD18A
:103A2000DFF8A805016851F004010160016851F058
:103A30000101016009E0DFF89405016849084900C7
:103A40000160016831F004010160A868002810D00D
:103A500000F035FB0600DFF874050068800719D414
:103A600000F02DFB801B41F289318842F3D3032003
:103A7000F1E000F024FB0600DFF850050068800745
:103A800008D500F01CFB801B41F289318842F3D33A
:103A90000320E0E04846C0B2012805D1DAF8000072
:103AA00030F08050CAF80000A86A002800F0D280E8
:103AB000A86A022840F0AC80D8F80000070017F090
:103AC0000300E96A884226D117F07000296B491E6D
:103AD000B0EB011F1FD117F4FE40696BB0EB012F53
:103AE00019D1A86B072801D1002000E0012017F4AC
:103AF000003181420FD117F4C000E96B4908491E1B
:103B0000B0EB415F07D117F0C060296C4908491E2E
:103B1000B0EB416F5CD00C2C58D0DFF8FCA3DAF886
:103B20000000400103D4DAF80000C00001D50120F4
:103B300091E0DAF8000030F08070CAF8000000F080
:103B4000BEFA8146DAF80000800107D500F0B7FA26
:103B5000B0EB09000328F5D303207CE0D8F800106F
:103B6000DFF86C040140E86A0143286B401E51EA0B
:103B70000011686B51EA0021E86B4008401E51EAD1
:103B80004051286C4008401E51EA4061A86B000972
:103B900051EA4041C8F80010DAF8000050F0807097
:103BA000CAF80000D8F8000050F08070C8F8000093
:103BB00000F085FA0600DAF8000080014AD400F02F
:103BC0007EFA801B0328F6D3032044E0012042E064
:103BD000DFF84493D9F8000080013BD4D9F8000005
:103BE00050F08070C9F80000D8F8000050F08070E4
:103BF000C8F8000000F063FA0600D9F80000800160
:103C000028D400F05CFA801B0328F6D3032022E0BE
:103C10000C2C1DD0DFF80093D9F8000030F0807034
:103C2000C9F8000000F04BFA0600D9F80000800146
:103C300006D500F044FA801B0328F6D303200AE0DF
:103C4000D8F80010DFF88C030140C8F8001001E03C
:103C5000012000E00020BDE8FE8F2DE9F0410400C6
:103C60000D00002C01D10120B3E0DFF86C7338683F
:103C700010F00700A8420BD23868C008C0002843E3
:103C80003860386810F00700A84201D00120A0E099
:103C9000207880070DD5DFF88412086810F0F00056
:103CA000A268904205D20A6832F0F002A06802438E
:103CB0000A602078C00742D56068032806D1DFF883
:103CC0005802006880011CD4012082E0606802284C
:103CD00006D1DFF844020068800312D4012078E0A6
:103CE0006068002806D1DFF830020068800708D439
:103CF00001206EE0DFF820020068400501D40120B9
:103D000067E0DFF81882D8F8001089088900606839
:103D10000143C8F8001000F0D2F90600D8F80000FE
:103D200010F00C006168B0EB810F08D000F0C7F90B
:103D3000801B41F289318842F0D3032049E020788A
:103D400080070DD5DFF8D411A0680A6812F0F002E0
:103D5000904205D20A6832F0F002A06802430A607D
:103D6000386810F0070085420BD23868C008C000E0
:103D700028433860386810F00700A84201D00120BD
:103D800027E02078400706D564490A6832F4E062EB
:103D9000E06802430A602078000707D55F480168A1
:103DA00031F46051226951EAC201016000F013F858
:103DB000DFF80C12594A1268C2F30312895C11F041
:103DC0001F01C840564908605648006801F0A4FA2F
:103DD000C0B2BDE8F0812DE9F041002600204F4936
:103DE000096811F00C01DFF8CCC1DCF8007017F0A5
:103DF0000307002903D00C291AD1012F18D1DFF8AD
:103E000018E1DEF800805FEA087806D4DFF8A8E160
:103E1000DEF800E0CEF3032E03E0DEF800E0CEF3A0
:103E2000031E6E4E56F82E6000290CD130000AE0B9
:103E3000042903D1DFF8A8E1704604E0082902D183
:103E4000DFF8A0E170460C292DD1DCF800E01EF06F
:103E5000030E73469E46BEF1020F03D0BEF1030F60
:103E600003D005E0DFF878E103E0DFF878E100E077
:103E7000B646DCF80020C2F30212521C1500DCF832
:103E80000020C2F3062202FB0EFEBEFBF5F2DCF8B8
:103E900000C0CCF3416C1CF1010C5FEA4C0C644691
:103EA000B2FBF4FC6046BDE8F0811D480068704735
:103EB00080B5FFF7FAFF4C49184A1268C2F3022294
:103EC000895C11F01F01C84002BD80B5FFF7EDFF0E
:103ED0004549124A1268C2F3C222895C11F01F01DF
:103EE000C84002BD0F2202600C4A136813F003039E
:103EF0004360136813F0F0038360136813F4E06306
:103F0000C3601268D20812F4E0620261324A126899
:103F100012F007020A6070470010024008100240C9
:103F20001C000020180000207CB504000025254E50
:103F30003068C00003D501F04BFA01000FE0306893
:103F400050F080503060306810F080500090009841
:103F500001F03EFA0100306830F080503060B1F579
:103F6000007F09D1812C15D3A12C02D3022005009A
:103F700010E0012005000DE0812C02D30320050094
:103F800008E0802C02D10220050003E0702C01D152
:103F90000120050010480268D208D2002A430260BE
:103FA000006810F00700A84201D0012000E00020C6
:103FB00076BD00000C100240941002400410024034
:103FC0001894000858100240007000409010024001
:103FD0008C809DF9FCFFEEFE002002404892000814
:103FE0000024F40000127A008C94000810B504003C
:103FF0002068774988420DD07649884212D07649A8
:10400000884217D175490868002802D00020096845
:10401000884712E071494868002802D001204968A9
:1040200088470AE06D498868002802D00220896824
:10403000884702E0012000F0EDF810BD10B5040043
:104040002068634988420DD06249884212D0624993
:10405000884217D162490868002802D00020096808
:10406000884712E05E494868002802D0012049686C
:1040700088470AE05A498868002802D002208968E7
:10408000884702E0012000F0C5F810BD55480168DE
:10409000554A127889180160704770B5040000F025
:1040A0000EF80500260016F1010F02D04E480078E8
:1040B000361800F004F8401BB042FAD370BD4948EE
:1040C0000068704738B500240021484801F0CAF95B
:1040D0000500002D01D0280040E00121444801F0F6
:1040E000C1F90400002C01D0200037E00221414832
:1040F00001F0B8F90500002D01D028002EE00421C0
:104100003D4801F0AFF90400002C01D0200025E06B
:1041100005213A4801F0A6F90500002D01D028003C
:104120001CE00321364801F09DF90400002C01D069
:10413000200013E00FF2290001F0BAF9002100205D
:1041400000F01AF80021012000F016F800210120EB
:1041500000F012F8002000F003F8200032BD00004B
:10416000002804D04FF40071264A116003E04FF498
:104170000071254A11607047002803D0022819D029
:104180000CD323E0002904D04FF400421D4B1A60E9
:1041900003E04FF400421C4B1A6017E0002904D0E2
:1041A0004FF48072194B1A6003E04FF48072184B81
:1041B0001A600BE0002904D04FF48052134B1A60B0
:1041C00003E04FF48052124B1A60FFE77047000083
:1041D000004400400048004000380140680A0020C8
:1041E000740A0020880A002058000020B003002034
:1041F00038040020C004002064070020B807002015
:10420000AC060020180400482804004818000048A4
:104210002800004810B5040000210020FFF7ACFF83
:1042200000210120FFF7A8FF00210120FFF7A4FFD4
:10423000002C0ED00120FFF793FF4FF4FA70FFF728
:104240002CFF0020FFF78CFF4FF4FA70FFF725FFDB
:10425000EEE710BD7047000010B410F00703DFF860
:10426000F84022684FF6FF010A40DFF8F01051EAEB
:1042700003210A43226010BC7047DFF8DC000068AD
:10428000C0F3022070470000010049B200290AD49F
:10429000012210F01F018A40DFF8C41003005BB256
:1042A0005B0941F82320704710B4020052B2002A83
:1042B00005D40A012B4B040064B21A5508E00A0128
:1042C000294B040064B214F00F04234403F8042CB7
:1042D00010BC704770B4030013F00704D4F107005A
:1042E000052801D3042001E0D4F10700251D072D86
:1042F00001D2002500E0E51E012616FA00F0401E5E
:104300000140A94016FA05F56D1E2A401143080028
:1043100070BC704710B504002000FFF79DFF10BD72
:104320002DE9F04104000D0016000027FFF7A5FF5E
:104330008046320029004046FFF7CCFF01002000F4
:1043400040B2FFF7B1FFBDE8F08110B504002000D6
:1043500040B2FFF799FF10BD0CED00E00000FA0538
:1043600000E100E000E400E018ED00E010B50446D4
:1043700010460A460146204601F0FCF8204610BDD2
:104380002DE9F84F05005FF00008002728680005B8
:1043900031D5686E002810D0B0F5800F13D0B0F57D
:1043A000000F03D0B0F5400F14D014E0DFF8B403D1
:1043B000016851F4803101600FE00021281D00F0F8
:1043C000DBF9804609E0002115F1200000F098FAA1
:1043D000804602E001E0012080464046C0B200284D
:1043E00008D1DFF884130A6832F44002686E024391
:1043F0000A6000E047462868C00431D5A86E00284E
:1044000010D0B0F1807F13D0B0F1007F03D0B0F1B5
:10441000407F14D014E0DFF84C03016851F4803180
:1044200001600FE00021281D00F0A6F9804609E098
:10443000002115F1200000F063FA804602E001E05F
:10444000012080464046C0B2002808D1DFF818138A
:104450000A6832F04072A86E02430A6000E04746E4
:10446000286880037CD55FF00009DFF800A3DAF844
:104470000000C0000DD4DAF8000050F08050CAF8F7
:104480000000DAF8000010F0805000900098012041
:104490008146DFF8DCB2DBF8000050F48070CBF826
:1044A0000000FFF70CFE0600DBF80000C00506D494
:1044B000FFF705FE801B0328F6D303208046404605
:1044C000C0B2002841D1DFF8ACB2DBF8000010F434
:1044D00040700400002C16D0D5F88000844212D021
:1044E000DBF8000030F440700400DBF8000050F40A
:1044F0008030CBF80000DBF8000030F48030CBF8DF
:104500000000CBF80040E0070FD5FFF7D8FD06000C
:10451000DBF80000800708D4FFF7D1FD801B41F2D3
:1045200089318842F4D3032080464046C0B2002837
:1045300009D1DBF8001031F44071D5F88000014357
:10454000CBF8001002E0474600E047464846C0B2BC
:10455000012805D1DAF8000030F08050CAF80000D8
:104560002878C00707D5DFF800120A689208920081
:10457000A86B02430A602878800707D5DFF8E811A6
:104580000A6832F00C02E86B02430A6028784007A0
:1045900007D5DFF8D4110A6832F03002286C0243E4
:1045A0000A602878000707D5DFF8BC110A6832F0E6
:1045B000C002686C02430A602878C00607D5DFF89D
:1045C000A8110A6832F44072A86C02430A60287885
:1045D000800607D5DFF890110A6832F44062E86C73
:1045E00002430A602868800507D5DFF87C110A6855
:1045F00032F44022E86D02430A602868400507D57E
:10460000DFF864110A6832F44012286E02430A602F
:104610002878400607D5DFF850110A6832F4405276
:10462000286D02430A602878000607D5DFF83811A4
:104630000A6832F44042686D02430A602868C00587
:1046400007D5DFF824110A6832F44032A86D02431E
:104650000A60286800031FD5DFF80C110A6832F0E1
:104660004062E86E02430A60E86EB0F1006F05D167
:104670003C48016851F4801101600DE0E86EB0F132
:10468000806F09D10121281D00F076F88046404650
:10469000C0B2002800D04746286840031FD5DFF885
:1046A000C8100A6832F04062286F02430A60286F1F
:1046B000B0F1006F05D12B48016851F48011016001
:1046C0000DE0286FB0F1806F09D10121281D00F0A5
:1046D00053F880464046C0B2002800D047462868BC
:1046E000400425D5DFF880100A6832F04052686F28
:1046F00002430A60686FB0F1805F0AD10221281D71
:1047000000F03AF880464046C0B2002810D0474634
:104710000EE0686FB0F1005F0AD1022115F12000B0
:1047200000F0EEF880464046C0B2002800D0474670
:104730002868000407D5DFF830100A6832F080429C
:10474000A86F02430A602868C00307D5DFF8181075
:104750000A6822F00042E86F02430A603800C0B2E3
:10476000BDE8F28F0C100240881002405810024041
:1047700000700040901002402DE9F04105000C004F
:104780000027DFF8CC12086810F0030F12D0086879
:1047900010F003002A68904209D12868002806D04A
:1047A0000868C0F30210401C6968884235D00120B7
:1047B000070032E02868012804D01ED3032811D056
:1047C00008D31AE0DFF88C020068800701D40120CA
:1047D000070014E0DFF87C020068400501D40120E6
:1047E00007000CE0DFF86C020268920304D4006852
:1047F000400301D40120070001E001200700380038
:10480000C0B2002809D10A6832F073022868024356
:104810006868401E52EA00120A603800C0B20028E0
:1048200069D1DFF83082D8F8000030F08060C8F835
:104830000000FFF744FC0600D8F80000000106D590
:10484000FFF73DFC801B0328F6D303200700380048
:10485000C0B200284FD1002C0ED1DFF8FC110A683D
:10486000DFF8F8010240A86852EA0022E86800096F
:1048700052EA40420A6020E0012C0FD1DFF8D81143
:104880000A68DFF8DC010240A86852EA00222869C1
:104890004008401E52EA40520A600EE0DFF8B811AC
:1048A0000A68DFF8C0010240A86852EA002268697D
:1048B0004008401E52EA40620A60D8F8000050F0FA
:1048C0008060C8F80000FFF7FAFB0600D8F8000087
:1048D000000106D4FFF7F3FB801B0328F6D3032067
:1048E00007003800C0B2002805D1DFF86C110A6853
:1048F000A86902430A603800C0B2BDE8F081000038
:104900002DE9F04105000C0000275149086810F01E
:10491000030F12D0086810F003002A68904209D1F2
:104920002868002806D00868C0F30210401C696897
:10493000884232D0012007002FE02868012804D0E7
:104940001BD303280FD007D317E042480068800725
:1049500001D40120070012E03E480068400501D460
:10496000012007000BE03B480268920304D4006872
:10497000400301D40120070001E0012007003800B6
:10498000C0B2002809D10A6832F0730228680243D5
:104990006868401E52EA00120A603800C0B200285F
:1049A00052D1DFF8B080D8F8000030F08050C8F85D
:1049B0000000FFF784FB0600D8F80000800006D551
:1049C000FFF77DFB801B0328F6D303200700380088
:1049D000C0B2002838D1002C0CD123490A681F48E6
:1049E0000240A86852EA0022E868000952EA404200
:1049F0000A600CE01C490A681A480240A86852EA9A
:104A0000002228694008401E52EA40620A60D8F835
:104A1000000050F08050C8F80000FFF750FB06007F
:104A2000D8F80000800006D4FFF749FB801B03285C
:104A3000F6D3032007003800C0B2002804D10A4989
:104A40000A68686902430A603800C0B2BDE8F081B4
:104A50000C1002400010024010100240FF80FDFFC9
:104A6000FF809FFFFF80FFF91410024080B500F027
:104A7000B5FD00F01BF800F06CFA00F045FA00F00C
:104A800057F800F028F900F0E5F900F001FA00F01D
:104A90001DFA00F098F800F0F4F800F0C3F800F008
:104AA0007FF900F0ADFD00F0FBFDFEE780B596B0AC
:104AB0004422002105A8FFF759FC14220021684672
:104AC000FFF754FC4FF4007000F088FC002801D080
:104AD00000F0FEFA012005905FF48030069002207D
:104AE0000F900320109001201190142012900720A5
:104AF0001390022014900220159005A8FEF792FD55
:104B0000002801D000F0E4FA0F200090032001906B
:104B100000200290002003900020049004216846A9
:104B2000FFF79BF8002801D000F0D2FA17B000BDC3
:104B300010B586B0182200216846FFF717FCDFF891
:104B40002845DFF828052060002060600020A06074
:104B50000020E060002020610420606100202076B9
:104B6000002060760120E061002084F820004FF4EE
:104B7000B060A0624FF48060E062002084F83000F2
:104B800000206063002084F83800200000F02FFE31
:104B9000002801D000F09CFADFF8D4040090062031
:104BA0000190002002907F200390042004900020B8
:104BB00005906946200000F029FF002801D000F090
:104BC00087FA06B010BD10B5DFF8A844DFF8A804D6
:104BD0002060DFF8A80460600020A0600120E06091
:104BE00000202061002060610020A0610020E061C1
:104BF00000202062200001F051F9002801D000F0CF
:104C000067FA0021200001F0B9F9002801D000F076
:104C10005FFA0021200001F0E3F9002801D000F044
:104C200057FA10BD10B5DFF85844DFF8580420607B
:104C3000DFF8540460600020A0600120E0600020E4
:104C40002061002060610020A0610020E061002060
:104C50002062200001F022F9002801D000F038FA8B
:104C60000021200001F08AF9002801D000F030FA7C
:104C70000021200001F0B4F9002801D000F028FA4A
:104C800010BD80B5DFF80404DFF8041401604FF4B0
:104C900082714160002181604FF4E061C1600021B8
:104CA0000161002141614FF4007181613021C161D6
:104CB0000021016200214162002181620721C1625D
:104CC000002101630821416301F0BCF9002801D0F3
:104CD00000F0FEF901BD10B58EB0102200210AA827
:104CE000FFF744FB0C2200216846FFF73FFB1C2224
:104CF000002103A8FFF73AFBDFF89843DFF8980399
:104D00002060002060600020A0604FF6FF70E0602F
:104D1000002020610020A061200001F00FFA00288F
:104D200001D000F0D5F94FF480500A900AA9200074
:104D300001F035FC002801D000F0CAF9200001F094
:104D400095FA002801D000F0C3F90020009000205F
:104D500002906946200001F0B7FE002801D000F063
:104D6000B7F96020039000200490002005900020F7
:104D70000790002203A9200001F060FB002801D069
:104D800000F0A6F9042203A9200001F057FB002837
:104D900001D000F09DF92000FEF74AF90EB010BDD9
:104DA00010B58EB0102200210AA8FFF7DFFA0C22FE
:104DB00000216846FFF7DAFA1C22002103A8FFF75A
:104DC000D5FAB64CB6482060002060600020A06094
:104DD0004FF6FF70E060002020610020A0612000FD
:104DE00001F0ACF9002801D000F072F94FF48050C6
:104DF0000A900AA9200001F0D2FB002801D000F09F
:104E000067F9200001F032FA002801D000F060F9C3
:104E100000200090002002906946200001F054FE1E
:104E2000002801D000F054F9602003900020049085
:104E30000020059000200790002203A9200001F027
:104E4000FDFA002801D000F043F92000FEF7F0F849
:104E50000EB010BD80B59348934901605FF4E13115
:104E60004160002181600021C160002101610C21AD
:104E70004161002181610021C161002101620021A5
:104E80004162FCF7F5FF002801D000F021F901BDD7
:104E900080B58648864901605FF4E13141600021B8
:104EA00081600021C160002101610C21416100216C
:104EB00081610021C1610021016200214162FCF792
:104EC000D7FF002801D000F003F901BD80B5794873
:104ED000794901605FF4E131416000218160002186
:104EE000C160002101610C2141610021816100212B
:104EF000C1610021016200214162FCF7B9FF002875
:104F000001D000F0E5F801BD80B56C48016851F0B2
:104F100002010160016811F002010091009901682D
:104F200051F001010160006810F00100009000984C
:104F3000002205210E20FFF7F3F90E20FFF705FAF6
:104F4000002205213C20FFF7EBF93C20FFF7FDF99B
:104F500001BDF8B586B0142200216846FFF706FAB5
:104F60005748016851F004010160016811F0040123
:104F700005910599016851F080010160016811F007
:104F8000800105910599016851F0010101600168F6
:104F900011F0010105910599016851F002010160CC
:104FA000006810F0020005900598464C00224FF46E
:104FB000D841200000F08CF949F210150022290098
:104FC0005FF0904000F084F94FF231263E4F00220E
:104FD0003100380000F07CF94FF4D84000900120F7
:104FE000019000200290002003906946200000F00C
:104FF00071F800950120019000200290002003909C
:1050000069465FF0904000F065F80096012001903D
:1050100000200290002003906946380000F05AF802
:105020004FF44070009000200190002002906946EB
:10503000200000F04FF84FF4006000905FF48810FB
:1050400001900020029069465FF0904000F042F825
:1050500007B0F0BD10B5040020681C49884201D19A
:10506000FFF714F810BD00004806002000020450AD
:105070000200300464070020005400408129F10040
:10508000B807002000580040E49CD110AC06002076
:10509000003001405C08002000040040A808002007
:1050A00000080040B0030020003801403804002010
:1050B00000440040C0040020004800404810024066
:1050C0004C10024000080048000400480034014031
:1050D00072B6FEE7F8B4030000250868E84000282F
:1050E00000F0F48001260F6816FA05F007403A0038
:1050F000002A00F0E980087910F00300012804D0AC
:10510000087910F00300022821D19F685FF0030C9A
:105110002800C0B240001CFA00FC37EA0C07D1F8A6
:105120000CC02800C0B240001CFA00FC5CEA070773
:105130009F60D3F804C016FA05F03CEA000C4868FA
:10514000C0F30010A84050EA0C0C64465C6008797B
:1051500010F00300032809D1D86AAE40B0434E686E
:10516000C6F3C006AE4030430400DC62087910F09C
:10517000030003280ED0DE6803272800C0B24000D9
:105180008740BE438F682800C0B2400087403E433E
:105190003400DC60087910F00300022818D12800E0
:1051A000C00803EB8000066A0F2715F00700C0B2A5
:1051B00080008740BE430F6915F00700C0B2800031
:1051C00087403E4334002800C00803EB800004629F
:1051D0001E6803272800C0B240008740BE430F79F5
:1051E00017F003072800C0B2400087403E43340058
:1051F0001C60486810F4403F66D03B48066856F093
:1052000001060660006810F0010000900098374F1A
:105210002800800857F820605FF00F0C15F003009D
:10522000C0B280001CFA00FC36EA0C06B3F1904FC5
:1052300001D100241EE02E48834201D1012419E04F
:105240002C48834201D1022414E02B48834201D12F
:1052500003240FE02948834201D104240AE02848AE
:10526000834201D1052405E02648834201D106246A
:1052700000E0072415F00300C0B2800084402643FC
:105280002800800847F820601F4C206890434F6832
:10529000FF0200D5104320601C4E346894434F68D1
:1052A000BF0200D514433460194E306890434F68F4
:1052B000BF0300D510433060164E346894434F68E6
:1052C000FF0300D5144334606D1C06E7F1BC704742
:1052D0001300DBB2002B03D00B009BB2836102E012
:1052E0000B009BB2836270476010024008000140CF
:1052F0000004004800080048000C00480010004866
:105300000014004800180048080401400C04014043
:1053100004040140000401402DE9F04387B004007B
:1053200000252648016851F400510160006810F41E
:1053300000500090009801A902A8FEF7D3FDFEF7E7
:10534000C4FD06001E48B6FBF0F77F1EDFF8748030
:105350001D48C8F8000040F2E730C8F80C00C8F853
:1053600004700020C8F810000020C8F808000020D1
:10537000C8F81800404600F0E1FE81464846C0B239
:10538000002816D1404600F016FF81464846C0B2BC
:1053900000280ED12C20FEF7D8FF102C07D20022B7
:1053A00021002C20FEF7BCFF0848046001E001202A
:1053B00081464846C0B207B0BDE8F08360100240A5
:1053C00040420F00F4080020003401401800002083
:1053D000DFF88000006810F4C06070470200B2F58A
:1053E000007F26D1DFF86C00036813F4C063B3F5C7
:1053F000007F2CD0036833F4C06353F40073036060
:10540000DFF85400036832204343DFF85000B3FB59
:10541000F0F0401C0100DFF8480003685B0503D58D
:10542000002901D0491EF6E7006840050FD503208A
:105430000EE0DFF82000036813F4C063B3F5806F5B
:1054400005D0036833F4C06353F480630360002025
:1054500070470000007000401C00002040420F0018
:105460001470004070B504000D000A2D01D3FF2018
:1054700011E00E4E46F83540012001F01CFC06EB11
:10548000C501486000230022002106EBC5004068EA
:1054900001F021FC002070BD01000A2901D3002089
:1054A00002E0024800EBC100704700000C08002039
:1054B00070B505002C4805602C4E012001F0FBFB67
:1054C0003060306801F036FF0400002C05D1002365
:1054D00000220021306801F0FEFB70BD38B50400E9
:1054E000224D5FF0FF31286801F051FE2048046032
:1054F000002300220021286801F0EDFB002032BDCE
:1055000038B50400194D5FF0FF31286801F03FFE07
:10551000174800682060002300220021286801F05D
:10552000DAFB002032BD38B504002000FFF7D6FFBB
:10553000FA2002F02DF90C4D2868002802D0012035
:1055400029688847FA2002F023F92868002802D049
:105550000020296888476846FFF7D2FF0098002896
:10556000E6D1002032BD0000D40A0020D00A00207D
:10557000CC0A002062F30F2262F31F42401810F0A1
:10558000030308D0C91A1FD3DB0748BF00F8012D59
:1055900028BF20F8022D130030B4144615461039E8
:1055A00028BF20E93C00FAD8490728BF20E90C00B1
:1055B00048BF40F8042D890028BF20F8022D48BFBD
:1055C00000F8012D30BC7047C91818BF00F8012D34
:1055D000CB0728BF00F8012D7047000010B500244C
:1055E0000320FEF797FE0F20FFF796FE002802D05B
:1055F0000120040001E0FDF7BDFB2000C0B210BD9A
:105600003EB50025FEF75EFD0400002C02D0200010
:10561000FEF700FE032002F024FE0500002D02D05C
:105620002800FEF7F7FD02F025FF0400002C02D051
:105630002000FEF7EFFD064801900020009005488D
:105640000368802204490FF2150001F0B2FF37BD54
:10565000180B00201C0B00209C9400081CB50400B3
:105660004FF4FA7002F094F800210020FEF784FD58
:105670004FF4FA7002F08CF801210020FEF77CFD57
:105680004FF4FA7002F084F86846FFF739FF00988B
:105690000028E9D04FF4FA7002F07AF8F7E700003A
:1056A00080B502F021F9002002BD0000826832F4CA
:1056B0007C120A4382607047826832F0E0720A43CB
:1056C00082607047806810F0E070704770B410F12D
:1056D000600515EB81052E68DFF80043264012F0C7
:1056E000F84426431E4356F000462E6070BC7047B7
:1056F000020012F1600010EB8100006810F0F84029
:10570000704710B410F1600313EB81031C6824F0A0
:10571000004414431C6010BC704770B410F1300496
:105720000B009B0913F00C031C1925681F2611F0B0
:105730001F039E40B543C2F3846611F01F039E40D1
:105740003543256070BC704770B410F114030C0031
:10575000E40D14F00404E3181C6807250E00360D50
:1057600016F01F06B540AC430D002D0D15F01F05BA
:1057700012FA05F52C431C6070BC704730B4D0F8A9
:10578000B0404B035B0B9C43DFF8543212F018051A
:10579000EB400B405B035B0B1C43C0F8B04030BCDC
:1057A00070478268DFF83C120A4082607047806868
:1057B000400F10F0010070478268DFF82C120A4099
:1057C00052F08052826070478068000F10F0010034
:1057D0007047806810F0010070478068800810F002
:1057E000010070478068C00810F0010070472DE983
:1057F000F84304005FF0000800200090002C01D165
:105800000120E9E02069002802D094F82000012856
:10581000606D002807D12000FDF7CAFA0020A065BE
:10582000002084F850002068FFF7C1FF002802D054
:105830002068FFF7B6FF2068FFF7C6FF002813D1E6
:105840002068FFF7B9FFDFF8A4010068DFF8A011B6
:10585000B0FBF1F0401C400000900098002803D0FD
:105860000098401E0090F8E72068FFF7ADFF002881
:1058700009D1606D50F010006065A06D50F001001E
:10588000A065012080462068FFF7A7FF0500606D36
:10589000C00600F19980002D40F09680606D30F4D4
:1058A000807050F0020060652068FFF792FF0028CA
:1058B00015D1DFF84001FFF78CFF0600DFF8380153
:1058C000FFF787FF0643DFF83401FFF782FF064347
:1058D000002E04D16168DFF82801FFF7E7FE607E43
:1058E000616B51EA4031E0680143A068014394F8DC
:1058F000200051EA0041894694F82000012803D194
:10590000606A401E59EA4049A06A002806D0A16A90
:1059100011F47071E06A014351EA09092068C16815
:10592000DFF8E000014059EA01012068C160206809
:10593000FFF758FF070057EA050000282AD1207E0C
:1059400094F83010490051EA803189462068C168D6
:10595000DFF8B400014059EA01012068C16094F801
:105960003800012810D1206801696FF38A01E06BCB
:105970000143206C0143606C0143A06C014351F072
:1059800001012068016105E02068006940084000CD
:10599000216808612069012809D12068006B00098D
:1059A0000001E169491E08432168086305E0206899
:1059B000006B0009000121680863606D30F002008F
:1059C00050F00100606505E0606D50F0100060650A
:1059D000012080464046C0B2BDE8F28300F0FF03DC
:1059E000FFFF0700C0FFFF5FC0FFFF7F1C0000201C
:1059F000400D030000000450000104500002045058
:105A00000003045007C0F0FFFDBFFFFF2DE9FE4F6C
:105A1000070088465FF0000900200090DFF85CB4C2
:105A2000D8F80C005845FFD197F85000012801D153
:105A300002201DE2012087F850003868FFF7CDFEF4
:105A4000002840F00A82D8F804A0D8F804000628FC
:105A500019D2D8F80400022806D012D3042809D09D
:105A600005D3052809D00CE00C2082460BE012205B
:105A7000824608E01820824605E04FF48070824696
:105A800001E006208246D8F8002051463868FFF72A
:105A900044FE3868FFF7A1FE05003868FFF7A2FE54
:105AA000060056EA0500002840F0CA80D8F8082011
:105AB000D8F800103868FFF747FED8F81410386897
:105AC000C068C0F3C100C0B2400081400191D8F865
:105AD0001000042808D0019BD8F80020D8F8101036
